{
  "contractName": "SimpleStorage",
  "abi": [
    {
      "constant": true,
      "inputs": [],
      "name": "data",
      "outputs": [
        {
          "internalType": "uint256",
          "name": "",
          "type": "uint256"
        }
      ],
      "payable": false,
      "stateMutability": "view",
      "type": "function"
    },
    {
      "constant": false,
      "inputs": [
        {
          "internalType": "uint256",
          "name": "_data",
          "type": "uint256"
        }
      ],
      "name": "set",
      "outputs": [],
      "payable": false,
      "stateMutability": "nonpayable",
      "type": "function"
    },
    {
      "constant": true,
      "inputs": [],
      "name": "get",
      "outputs": [
        {
          "internalType": "uint256",
          "name": "",
          "type": "uint256"
        }
      ],
      "payable": false,
      "stateMutability": "view",
      "type": "function"
    }
  ],
  "bytecode": "0x60806040526000805534801561001457600080fd5b5060f2806100236000396000f3fe6080604052348015600f57600080fd5b5060043610603c5760003560e01c806360fe47b11460415780636d4ce63c14606c57806373d4a13a146088575b600080fd5b606a60048036036020811015605557600080fd5b810190808035906020019092919050505060a4565b005b607260ae565b6040518082815260200191505060405180910390f35b608e60b7565b6040518082815260200191505060405180910390f35b8060008190555050565b60008054905090565b6000548156fea265627a7a72315820bcb645ebe36e755e651c4f024da04012f6d55e803d6fa7119a62becc18da2da864736f6c63430005100032",
  "source": "pragma solidity ^0.5.0;\r\n\r\ncontract SimpleStorage {\r\n    uint public data = 0;\r\n    \r\n    function set(uint _data) public {\r\n        data = _data;\r\n    }\r\n    \r\n    function get() view public returns(uint) {\r\n        return data;\r\n    }\r\n}",
  "sourcePath": "E:/Courses/New_folder/Ethereum/SimpleStorageContract/contracts/SimpleStorage.sol",
  "compiler": {
    "name": "solc",
    "version": "0.5.16+commit.9c3226ce.Emscripten.clang"
  },
  "schemaVersion": "3.0.22",
  "updatedAt": "2020-02-24T06:49:28.824Z",
  "networkType": "ethereum",
  "devdoc": {
    "methods": {}
  },
  "userdoc": {
    "methods": {}
  }
}